:020000040800F2
:10000000000B0120DD01000815120008E1020008C4
:1000100083100008AB0300088F1B000800000000DD
:10002000000000000000000000000000AD14000807
:100030000F0C0008000000002F02000881170008C4
:10004000F7010008F7010008F7010008F7010008B0
:10005000F7010008F7010008F7010008F7010008A0
:10006000F7010008F7010008F7010008F701000890
:10007000F7010008F7010008F7010008F701000880
:10008000F7010008C1080008F7010008F70100089F
:10009000B1030008F7010008F7010008F7010008A4
:1000A000F7010008F7010008F7010008F701000850
:1000B000F7010008F7010008F7010008F701000840
:1000C000F7010008F7010008F7010008F701000830
:1000D000F7010008F701000849190008F7010008B6
:1000E000F7010008F7010008F7010008F701000810
:1000F000F7010008F7010008F7010008F701000800
:10010000F7010008F7010008F7010008F7010008EF
:10011000F7010008F7010008F7010008F7010008DF
:10012000F7010008F7010008F7010008F7010008CF
:10013000F70100080000000000000000F7010008BF
:10014000F7010008C9030008F7010008F7010008DB
:10015000F7010008F7010008F7010008F70100089F
:10016000F7010008F7010008F7010008F70100088F
:10017000F7010008F7010008F7010008000000007F
:1001800000000000F701000800000000000000006F
:10019000F70100080000000000000000F70100085F
:1001A000000000000000000000000000F70100084F
:1001B000F7010008F7010008F7010008F70100083F
:1001C000F7010008DFF810D000F0D8F80048004729
:1001D000A1030008AFF30080000B01200648804710
:1001E00006480047FEE7FEE7FEE7FEE7FEE7FEE71C
:1001F000FEE7FEE7FEE7FEE789170008C5010008F5
:10020000EFF3108072B6704780F310887047424A4F
:100210001368012B04D04FF0010313603F4A1060B4
:100220003F4A11603F484FF0805101607047EFF343
:10023000108272B63848016851B34FF00001016076
:100240003648016891B1EFF309811EF0100F08BF25
:1002500021ED108B21E9F00F4FF000041EF0100F7C
:1002600008BF012441F8044D006801602C49096869
:10027000096808C9B1E8F00F002B18BFB1EC108B6A
:1002800081F309884EF0100E002B18BF2EF0100ECF
:1002900082F310884EF0040E704721490860EFF396
:1002A000148222F0040282F314881C494FF00000EB
:1002B000086019494FF0010008601B481B49D0F83D
:1002C000002041EA0201016016484FF080510160B0
:1002D00017480068006880F3088861B662B6704706
:1002E0001EF0040F0CBFEFF30880EFF3098020E944
:1002F000F00F40F804ED40F804ED1EF0040F0CBFC1
:1003000080F3088880F3098800B501F067FE5DF886
:1003100004EB4EF0040E70474C0000204400002017
:100320004800002004ED00E020ED00E00000FFFFA9
:1003300008ED00E040EA01039B0703D009E008C98B
:10034000121F08C0042AFAD203E011F8013B00F89A
:10035000013B521EF9D27047D2B201E000F8012BE6
:10036000491EFBD270470022F6E710B513460A4635
:1003700004461946FFF7F0FF204610BD064C074D16
:1003800006E0E06840F0010394E807009847103465
:10039000AC42F6D3FFF71AFF3033000850330008A1
:1003A00010B502F05DFD002010BD00BFFEE70000AB
:1003B00010B5034A0021034800F02BF910BD0000DE
:1003C000380400200064004010B5044A01210448AC
:1003D00000F01FF900F08CFC10BD00004C04002060
:1003E0000068004010B50021837A012202FA03F16F
:1003F0003D4A126842F001023B4B1A603A4A1C32F5
:1004000012688A43384B1C331A60027BCAB9364AD9
:100410000C3212688A43344B0C331A604288C3880A
:1004200042EA0343304A4032847A42F83430028848
:10043000838842EA03432C4A4032847A02EBC402A6
:100440005360027B012A19D1274A0C3212680A43F1
:10045000254B0C331A604288038842EA0343224A40
:100460004032847A42F83430C288838842EA0343B7
:100470001D4A4032847A02EBC4025360C27A3AB910
:10048000194A121D12688A43174B1B1D1A6006E099
:10049000154A121D12680A43134B1B1D1A6002896C
:1004A00032B9114A143212688A430F4B14331A605E
:1004B0000289012A06D10C4A143212680A430A4BF7
:1004C00014331A60427B012A06D1074A1C32126893
:1004D0000A43054B1C331A60034A126822F00102DA
:1004E000014B1A6010BD0000006600401AB143695C
:1004F0000B43436102E043698B434361704730B56E
:10050000024600200023146824F0020414601468DA
:1005100044F00104146000E05B1C546804F0010422
:100520001CB94FF6FF74A342F6D1546804F00104DD
:100530000CB900206CE08C79012C04D1146844F0D3
:100540008004146003E0146824F080041460CC7903
:10055000012C04D1146844F04004146003E01468D2
:1005600024F0400414600C7A012C04D1146844F087
:100570002004146003E0146824F0200414604C7A12
:10058000012C04D1146844F01004146003E01468D2
:1005900024F0100414608C7A012C04D1146844F007
:1005A0000804146003E0146824F008041460CC7A92
:1005B000012C04D1146844F00404146003E01468AE
:1005C00024F0040414608C78A407CD7844EA056410
:1005D0000D7944EA05444D7944EA05540D886D1EB1
:1005E0002C43D461146824F001041460002300E05B
:1005F0005B1C546804F001041CB14FF6FF74A34265
:10060000F6D1546804F001040CB1002000E0012090
:1006100030BD10B500F5D87303EB01131B6803F070
:1006200004031372137A53B900F5D87303EB011363
:100630001B6840F2FF7404EA5353136009E000F5AD
:10064000D87303EB01131B686FF0604404EAD30313
:10065000536000F5D87303EB01131B6803F002032A
:10066000537200F5D87303EB01135B6803F00F03BB
:10067000937200F5D87303EB01135B681B0AD37404
:1006800000F5D87303EB01139B68D37200F5D873A0
:1006900003EB01139B681C0A147300F5D87303EB7A
:1006A00001139B681C0C547300F5D87303EB011302
:1006B0009B681B0E937300F5D87303EB0113DB6883
:1006C000D37300F5D87303EB0113DB681C0A1474B1
:1006D00000F5D87303EB0113DB681C0C547400F5B0
:1006E000D87303EB0113DB681B0E937411B920233D
:1006F000C36001E02023036110BD10B50246002055
:10070000936803F08063B3F1806F00D110E09368C9
:1007100003F00063B3F1006F01D1012008E093689A
:1007200003F08053B3F1805F01D1022000E0042088
:10073000042874D002F5C07303EB00131B6803F0A8
:10074000010402F5C07303EB00131C600B7A7BB944
:100750004B7A0C8843EA445302F5C07404EB00144E
:100760002468234302F5C07404EB0014236010E0F6
:100770000B7A4C6843EAC4034C7A234302F5C074F5
:1007800004EB00142468234302F5C07404EB001446
:1007900023608B7A03F00F038B7202F5C07303EBB7
:1007A00000135B6823F00F0402F5C07303EB001322
:1007B0005C6002F5C07303EB00135B688C7A234323
:1007C00002F5C07404EB001463608B7B1C064B7B4A
:1007D00044EA03440B7B44EA0323CC7A234302F527
:1007E000C07404EB0014A3608B7C1C064B7C44EAB1
:1007F00003440B7C44EA0323CC7B234302F5C074FF
:1008000004EB0014E36002F5C07303EB00131B68F4
:1008100043F0010402F5C07303EB00131C6010BD2C
:1008200010B50246002321B1012907D002290FD1BA
:1008300009E090681D4C00EA04030BE090681C4C32
:1008400000EA040306E090681A4C00EA040301E0A1
:10085000002300BF00BF184C181BA34216D007DCB2
:1008600083B16FF08060184470B1022818D111E094
:10087000B0F5007F10D0114C204448B1B0F5003FD6
:100880000ED10BE002230DE000230BE0002309E072
:10089000002307E0012305E0012303E0012301E039
:1008A000002300BF00BFD8B210BD00000300000449
:1008B0000003000800000310000100080001FFF71A
:1008C00010B50549054800F0FFF818B10249034882
:1008D00000F006F810BD000000002020A0600240DB
:1008E0000246094B9A4201D2084801E006481038F6
:1008F00001F000531BB1064B0B40C36002E0044BF8
:100900000B408360704700001064024000600240AA
:100910007D0F7D0F21B1026842F00102026003E009
:10092000026822F00102026070470000016821F0B5
:10093000010101600021016041608160C1600161CD
:10094000212141614A49884204D13D21484A103A57
:1009500091608CE046491831884205D14FF47461AA
:10096000434A103A916082E041493031884205D1D2
:100970004FF474113E4A103A916078E03C49483196
:10098000884205D14FF07461394A103A91606EE0A7
:1009900037496031884204D13649354A103AD1602E
:1009A00065E033497831884204D13349304A103AFE
:1009B000D1605CE02E499031884204D12F492C4A05
:1009C000103AD16053E02A49A831884205D14FF04E
:1009D0003D51274A103AD16049E02949884204D163
:1009E0003D21274A083A116041E0254918318842E3
:1009F00005D14FF47461224A083A116037E020496A
:100A00003031884205D14FF474111D4A083A116003
:100A10002DE01B494831884205D14FF07461184AD6
:100A2000083A116023E016496031884204D1114927
:100A3000134A121F11601AE011497831884204D11B
:100A40000D490F4A121F116011E00D499031884283
:100A500004D10A490A4A121F116008E00849A83166
:100A6000884204D14FF03D51054A121F1160704772
:100A7000106002403D000020400F002000003D209B
:100A80001064024021B1026842F48022026003E057
:100A9000026822F480220260704722B1036843F4A6
:100AA0000023036003E0036823F400230360016173
:100AB0007047014600200A6802F400220AB10120B2
:100AC00000E000207047000030B503460A460020D1
:100AD00000240B4DAB4201D20A4901E0084910390C
:100AE00002F000550DB14C6800E00C68064D2C403A
:100AF00004EA02050DB1012000E0002030BD000035
:100B000010640240006002407D0F7D0F70B5024608
:100B1000002000240025124EB24201D2114B01E008
:100B20000F4B103B104E0E4036B11E2606EAD12464
:100B3000166806EA040502E0566906F0800501F031
:100B400000560EB15C6800E01C68084E344004EAB0
:100B5000010616B10DB1012000E0002070BD0000BB
:100B600010640240006002403C0F3C0F7D0F7D0F7F
:100B700010B501F080034BB122B1436943F080030B
:100B8000436103E0436923F08003436180290BD074
:100B90002AB1036801F01E042343036004E00368E4
:100BA00001F01E04A343036010BD000010B5002235
:100BB0000268134B1A40CC680B6823434C692343EB
:100BC0008C692343CC6923430C6A23434C6A234337
:100BD0008C6A23434C6B23438C6B23431A43026080
:100BE000426922F00702D1E90B3423431A434261E0
:100BF0000B6943604B6883608B68C36010BD000065
:100C00003F801CF00AB1016100E0C160704770478D
:100C1000F0B50A4600210023002400BF3DE0012575
:100C200005FA01F3156805EA03049C4234D105680E
:100C30004F000326BE40B543056015794E00B54010
:100C40000668354305601579012D02D01579022D0E
:100C500016D185684F000326BE40B543856055799F
:100C60004E00B540866835438560456801268E4054
:100C7000B5434560456896798E40B6B235434560C8
:100C8000C5684F000326BE40B543C560D5794E0008
:100C9000B540C6683543C560491C1029BFD3F0BDB7
:100CA000F0B5002300244D07ED0E02FA05F3CE1037
:100CB00000F1200555F826504E07F70E0F26BE40CE
:100CC000B543CF1000F1200646F82750CE1000F1B2
:100CD000200555F8265045EA0304CE1000F1200502
:100CE00045F82640F0BD000000487047B0020020E3
:100CF0000B480068A0F2011080B90948C07A094980
:100D000048700748007B88700548407BC8700448DD
:100D1000807B08710248C07B487100BF00BF7047EC
:100D20004C0400203C00002070B50546002413E070
:100D300028190B4900F018F800B20A490880084643
:100D4000008820B1084600882044401E04B2C82C08
:100D500000DD70BD601C04B2C82CE9DB00BFF8E701
:100D6000B00200202400002070B504460D46002685
:100D70002078A5286FD128706078A17840EA0120FA
:100D80006880E07828710521204602F09FF801284C
:100D90006FD1688800F109066079A17940EA0120E5
:100DA000E880304600F0ABFF322801DDC82070BD7E
:100DB0003146204602F06AF8012874D1E98840F2F1
:100DC0000222881A914260D019DC40F20112A1EB94
:100DD0000200914240D008DC012919D0022922D01A
:100DE000032924D005291DD128E0012838D0032863
:100DF0003AD004283ED0B0F5807F13D13EE00928D8
:100E000010D2DFE800F084495155595D69747900CA
:100E100054F8070F28616068686120892883A07AE8
:100E2000E41FA87673E0E07985F820006FE02022C7
:100E3000E11D05F12200FFF77DFA68E054F8070F85
:100E400045F8420F6068686020892881A07AE41F15
:100E5000A872423D5BE061E0D4F80700286556E0E7
:100E6000D4F80700686552E0B4F80700A5F8580008
:100E70004DE051E0E07985F85A0048E01A22E11D82
:100E800005F15C00FFF756FA41E01022E11D05F183
:100E90007800FFF74FFA3AE01022E11D05F18800D3
:100EA000FFF748FA33E035E09820E17941552EE02C
:100EB0009920E17941552AE09A20E179415526E0CF
:100EC000D4F80710C5F89C10B4F80B10A5F8A010C2
:100ED000617B85F8A2101AE005F18000D4F80710B4
:100EE000C5F8A410B4F80B10A5F8A8100FE0D4F8BA
:100EF0000710C5F8AC100AE005F18000D4F807101F
:100F0000C5F8B010B4F80B10A5F8B41000BF00BFBE
:100F100030464CE700204AE7002048E7002046E73B
:100F200000B597B00121084600F0BCF90121480442
:100F300000F0C8F9072202214B48FFF7B1FE072253
:100F400003214948FFF7ACFE0C20159002208DF8D4
:100F5000580003208DF8590000208DF85A00012018
:100F60008DF85B0015A94048FFF752FE4FF4E130C1
:100F700011900020ADF84800ADF84A00ADF84C00E3
:100F8000ADF850000C20ADF84E0011A9374800F024
:100F90008FFD26208DF8400001208DF841000020B3
:100FA0008DF8420001208DF8430010A800F034F9BC
:100FB000012240212D4800F022FD012280212B48F2
:100FC00000F01DFD1021294800F004FD012240F22F
:100FD0002441264800F046FD0121244800F003FD8D
:100FE0000121480500F05EF92148FFF79FFC4FF012
:100FF000006001901D48001D02901E4803900020D3
:101000000490C8200590002006904FF4806007905F
:101010000020089009904FF480700A904FF44030FF
:101020000B9000200C900D900E900F9001A910488D
:10103000FFF7BCFD00220F49DC310D48FFF72DFD05
:1010400001210B48FFF71EFD012210210848FFF780
:101050008FFD00210648FFF75DFC01210448FFF7E2
:1010600059FC17B000BD00000000024000440040E1
:1010700088600240F800002002E0012001F0A8FC96
:10108000FBE700BFFEE71FB50020ADF80000ADF89C
:101090000200ADF80400ADF80600ADF808008DF8C8
:1010A0000A008DF80B0001208DF80C008DF80D0062
:1010B0006846FFF797F90120ADF808000E208DF87B
:1010C0000A0001208DF80D006846FFF78BF91FBD5F
:1010D0001CB50121480600F0F5F80121880600F052
:1010E000F1F80121084600F0DDF80121022000F0AE
:1010F000D9F84FF4C050009002208DF80400002071
:101100008DF8060003208DF8050001208DF80700FA
:1011100069461248FFF77CFD4FF440500090694645
:101120000F48FFF775FD09220B210C48FFF7B8FDAA
:1011300009220C210948FFF7B3FD09220C210848B8
:10114000FFF7AEFD09220D210548FFF7A9FD00F0CC
:1011500009F8FFF798FF00F031F81CBD00000240CD
:10116000000402400EB500208DF802000520ADF805
:10117000000003208DF8030004208DF804000220F5
:101180008DF8050000208DF8060001208DF807007D
:101190008DF8080000208DF809008DF80A008DF800
:1011A0000B0069460348FFF7AAF969460248FFF7B2
:1011B000A6F90EBD006400400068004008B5142088
:1011C0008DF8000001208DF8030000208DF801004B
:1011D0008DF80200684600F01FF841208DF80000ED
:1011E00001208DF8030000208DF801008DF8020029
:1011F000684600F011F8012202210448FFF776F951
:10120000012210210248FFF771F908BD0064004077
:10121000006800407047000070B5002100230F22D5
:10122000C4781CB3174C246804F4E064C4F5E0648B
:10123000C4F30721C1F10404E3B20A4144789C409D
:10124000E1B28478144021430C07210E0E4C05783E
:101250006155047804F01F050124AC4005786D1138
:10126000AD0005F1E025C5F8004109E0047804F07F
:101270001F050124AC40054D0678761145F826403F
:1012800070BD00000CED00E000E400E080E100E053
:1012900002490143024A1160704700000000FA054C
:1012A0000CED00E029B1064A12680243044B1A60B3
:1012B00004E0034A12688243014B1A607047000041
:1012C0003038024029B1064A12680243044B1A60C2
:1012D00004E0034A12688243014B1A607047000021
:1012E000403802402DE9F04100210023002402266D
:1012F000002502220227DFF8A4C1DCF800C00CF0B0
:101300000C0131B1042909D008290CD00C297CD159
:1013100048E0DFF88CC1C0F800C089E0DFF884C184
:10132000C0F800C084E0DFF874C1ACF1040CDCF854
:1013300000C0CCF38055DFF864C1ACF1040CDCF8DC
:1013400000C00CF03F0275B1DFF858C1BCFBF2FCE5
:10135000DFF84881A8F10408D8F80080C8F388189D
:101360000CFB08F40DE0DFF838C1BCFBF2FCDFF841
:101370002C81A8F10408D8F80080C8F388180CFB69
:1013800008F4DFF818C1ACF1040CDCF800C0CCF3B1
:10139000014C0CF1010C4FEA4C06B4FBF6FCC0F812
:1013A00000C045E0DFF8F4C0ACF1040CDCF800C08C
:1013B000CCF38055DFF8E4C0ACF1040CDCF800C0DD
:1013C0000CF03F0275B1DFF8DCC0BCFBF2FCDFF8CB
:1013D000CC80A8F10408D8F80080C8F388180CFB6A
:1013E00008F40DE0DFF8B8C0BCFBF2FCDFF8AC801D
:1013F000A8F10408D8F80080C8F388180CFB08F49A
:10140000DFF898C0ACF1040C00E00CE0DCF800C0A0
:10141000CCF3027C0CF1010C4FEA4C07B4FBF7FC57
:10142000C0F800C004E0DFF878C0C0F800C000BF1A
:1014300000BFDFF868C0DCF800C00CF0F00109095B
:10144000DFF864C01CF80130D0F800C02CFA03FCAF
:10145000C0F804C0DFF844C0DCF800C00CF4E05170
:10146000890ADFF844C01CF80130D0F804C02CFA17
:1014700003FCC0F808C0DFF824C0DCF800C00CF49E
:101480006041490BDFF820C01CF80130D0F804C0DF
:101490002CFA03FCC0F80CC0BDE8F081083802400B
:1014A0000024F400001BB700140000207047000067
:1014B00010B586B003200190002002908DF80C003A
:1014C0008DF80D0008208DF80E001148007C0009F1
:1014D0008DF80F0000218DF810108DF811108DF887
:1014E00012108DF813108DF814108DF815108DF85A
:1014F000161001A90748FFF700F9044600BF21466E
:101500000448FFF78DF90028F9D006B010BD00009F
:10151000B00200200068004010B586B001200190A4
:10152000002002908DF80C008DF80D0008208DF839
:101530000E00244890ED1F0ADFED230A20EE200A5A
:10154000BCEEC00A10EE100A000A8DF80F001D480C
:1015500090ED1F0ADFED1C0A20EE200ABCEEC00A47
:1015600010EE100AC1B28DF810101648B0F87800CD
:1015700001128DF81110134890F878108DF81210A0
:10158000B0F8800001128DF813100E4890F880100A
:101590008DF81410B0F8820001128DF8151009486A
:1015A00090F882108DF8161001A90848FFF7A5F8E9
:1015B000044600BF21460548FFF732F90028F9D05C
:1015C00006B010BDB00200200000C8420068004014
:1015D00010B586B002200190002002908DF80C001A
:1015E0008DF80D0008208DF80E001B48B0F866003D
:1015F00000128DF80F00184890F866108DF8101042
:10160000B0F8660001128DF81110134890F86610BA
:101610008DF81210B0F8640001128DF813100E4806
:1016200090F864108DF81410B0F8620001128DF873
:101630001510094890F862108DF8161001A9074896
:10164000FFF75BF8044600BF21460448FFF7E8F8BF
:101650000028F9D006B010BDB0020020006800409C
:101660000CB50020019000904148006840F48030A3
:101670003F49086000BF3E48006800F40030009019
:101680000198401C0190009818B90198B0F5A04F3E
:10169000F1D13748006800F4003010B1012000900B
:1016A00001E0002000900098012860D130484030CF
:1016B000006840F080502E49403108602D48006895
:1016C00040F440402B490860294808300068284908
:1016D000083108600846006840F400400860084689
:1016E000006840F4A05008602348091F0860081FE4
:1016F000006840F08070091F086000BF1C48006847
:1017000000F000700028F9D01A48006840F48030DA
:101710001849086000BF1748406800F4803000286E
:10172000F9D01448006840F400301249086000BF46
:101730001048406800F400300028F9D040F20570ED
:101740000E4908600A480830006820F00300084984
:10175000083108600846006840F00200086000BFD9
:1017600003480830006800F00C000828F8D10CBDD0
:1017700000380240007000400C5A4077003C0240A4
:1017800010B500F091FE10BD10B51548006840F48A
:101790007000134908601348006840F001001149C7
:1017A000086000200F49083108600E4800680E49A3
:1017B00008400C4908600D48091D0860081F0068B2
:1017C00020F48020091F0860002006490C310860C1
:1017D000FFF746FF4FF0006001498039086010BDF7
:1017E00088ED00E000380240FFFFF6FE10300024D4
:1017F0001CB5012000904FF4C863002212490190EB
:1018000012A001F024F813490860012000214FF4D0
:10181000C8630A46CDE900100F4910A001F017F87F
:10182000114908601148B0F866400A48006818B1CC
:101830000848006801F01CF90B48006818B10A4814
:10184000006801F015F91CBD791000084A7564673D
:10185000650000003400002021190008496E7370F3
:10186000656374696F6E000038000020B0020020CC
:1018700000B591B02648FFF759F801214805FFF758
:1018800011FD4FF00060029022480390224804901E
:101890004020059046200690002007904FF480607D
:1018A0000890002009900A900B904FF480300C9023
:1018B00000200D900E900F90109002A91448FFF791
:1018C00075F902A91248FFF771F901221021104899
:1018D000FFF74EF900210E48FFF71CF801210C48D4
:1018E000FFF718F811208DF8040002208DF805008C
:1018F00000208DF8060001208DF8070001A8FFF7F1
:101900008BFCFFF7F1F90549086011B000BD00003C
:10191000A06002400444004070030020300000201A
:101920000FE008480078012805D1FFF7F5FDFFF723
:101930004FFEFFF7BDFD002002490870012001F0B5
:1019400047F8EEE73C00002010B51D491D48FFF7A1
:10195000DDF818B11C4800F015F92FE040F22441E1
:10196000194800F055F848B3174800881648001D7C
:1019700000881448FFF79DF801280CD10022134974
:101980001048FFF73FF91148FFF7CEF9C8210F487B
:10199000FEF7E9FC0FE04FF400220C49DC31094866
:1019A000FFF730F90948DC30FFF7BEF9C8210748D6
:1019B000DC30FEF7D8FC01200549087010BD00009E
:1019C000001004108860024000440040F80000202D
:1019D0003C00002001F40072B2F5007F00D100BF8E
:1019E000CA430280704721B1828942F40052828149
:1019F00004E082894DF6FF731A40828170471AB164
:101A0000838A0B43838202E0838A8B4383827047FD
:101A100070B50246002400230025002040F66A1617
:101A2000B14200D100BFC1F3421501F01F030126EE
:101A300006FA03F3012D02D19689334006E0022D08
:101A400002D1168A334001E0968A33400C120126F7
:101A500006FA04F41688344013B10CB1012000E0FA
:101A6000002070BDF0B503460024002600250020AC
:101A700040F66A17B94200D100BF1846C1F34214BC
:101A800001F01F06012707FA06F5012C01D10C30E1
:101A900004E0022C01D1103000E014301AB10768C4
:101AA0002F43076002E00768AF430760F0BD000006
:101AB0002DE9FF4705460E460024A14600BFA0467B
:101AC000B08900B100BF2C8A24F44054F08804434C
:101AD0002C82AC8941F20C608443B0883189084380
:101AE000718908430443AC81AC8A24F44074B08902
:101AF0000443AC826846FFF7F5FB2048854202D0DC
:101B00001F48854202D1DDF80C9001E0DDF8089015
:101B1000A88900F4004040B109EBC90000EB0910AE
:101B200031684900B0FBF1F707E009EBC90000EBB1
:101B3000091031688900B0FBF1F76420B7FBF0F0C1
:101B400004012009642101FB1078A88900F40040F9
:101B500040B1322000EBC800B0FBF1F000F007000C
:101B6000044308E0322000EB08106421B0FBF1F0E0
:101B700000F00F0004432C81BDE8FF8700100140F6
:101B80000014014001468888C0F30800704700BF78
:101B9000FEE70000014609B900207047C8B220B135
:101BA000C8B20E4A105C401CF7E701F47F4028B130
:101BB0000A48C1F30722805C0930EEE701F47F0098
:101BC00028B10648C1F30742805C1130E5E70348BD
:101BD00000EB116000781930DFE70000FC310008ED
:101BE00002E008C8121F08C1002AFAD170477047E6
:101BF000002001E001C1121F002AFBD17047000044
:101C00002DE9FC5F04468B4615461E46DDE90C9A1D
:101C1000DDE90E7804F114004060006000BF1C3460
:101C20006560A660C4F80C90C4F810A02321D4E924
:101C3000030200F081FBD4E9033C63441A1F0F4BFD
:101C4000D4E9010100F0E0F92060A7766776002072
:101C5000E061C4F82880C4F82C8060612076E065DB
:101C600020661C3C00902346054A2146019004F161
:101C70004C0001F048F80020BDE8FC9FA1280008B6
:101C8000E12A00082DE9F04704460E46174698461B
:101C9000DDF8209084F80990607A20F001006072ED
:101CA000E66127620020A062C4F82480002506E0D7
:101CB00004F1140101EBC50000F03DFA6D1C012D8B
:101CC000F6DBBDE8F08770B50546002406E005F1B7
:101CD000140101EBC40000F06FFA641C012CF6DB68
:101CE00070BD70B50446FEF78BFA0546A06F10B1C3
:101CF0002046A16F88472846FEF786FA70BD82B05D
:101D0000CDE9000121F0004001909DED000B02B0F3
:101D100051EC100B7047000030B5034613B94FF675
:101D2000FF7030BD09E013F8014B82EA0400C0B235
:101D3000054D35F8100080EA2222081EA1F10101AC
:101D4000F1D11046EDE70000FC2F000830B5034646
:101D500005E013F8010B80EA02040448025D081E46
:101D6000A1F10101F5D1104630BD0000FB2E0008A5
:101D70004FF44070FFF78CFAFFF7D2F8FFF7A8F99D
:101D8000FFF776FDFFF734FD00BFFEE710B5044610
:101D900000F066F8FFF7ECFF10BD000030B51A4CFC
:101DA000436824681919884215D04B889BB9174B92
:101DB0001B6899420FD0164B1B688B4201D1144B04
:101DC00018604B684360104B1B68C31A0E4D4C687B
:101DD0002D682C44A3600C4C836824681A19824235
:101DE00011D053887BB90A4B1B68834201D1084B41
:101DF0001A6043685360044B1B68D31A024D446851
:101E00002D682C44A36030BD5C00002060000020E1
:101E1000640000201CB514200A214FF480730022B6
:101E2000CDE90010044905A000F011FD044620464C
:101E300000F01EFE1CBD00008D1D00086D61696E66
:101E40000000000010B5044C02E020688047241D0B
:101E500002488442F9D310BD243300082833000817
:101E600010B5044C02E020688047241D02488442DB
:101E7000F9D310BD283300082C33000810B5FEF745
:101E8000BFF9044604480088401C00B2024908809B
:101E90002046FEF7B9F910BDD800002010B5FEF7B6
:101EA000AFF904460C480088401E00B20A49088079
:101EB0000846B0F9000000280ADC0020088020460F
:101EC000FEF7A2F90548006828B100F0F5FA02E033
:101ED0002046FEF799F910BDD8000020DC00002054
:101EE00070B5054605B970BD16480068854203D334
:101EF00015480068854200D3F5E7A5F10C044FF0C2
:101F0000FF31124800F0A8FB002060804FF4F5502C
:101F100020800F480068844201D20D4804600949BE
:101F200060680968611A401A0A490968081A09496B
:101F300008602046FFF732FF044800F064FB00BF52
:101F4000D1E700005C00002060000020E0050020D8
:101F5000640000206C00002000487047000700204B
:101F6000004870470007012070B5194800684FF419
:101F70007A72B0FBF2F1481EB0F1807F00D31BE013
:101F8000481E4FF0E022506150170F22002807DA58
:101F900013071D0E0F4B00F00F04241F1D5503E007
:101FA00013071C0E0C4B1C5400BF00204FF0E02206
:101FB00090610720106100BFFFF744FFFFF7D0FFDB
:101FC0000446FFF7C9FF0546214600F09BFB70BDA4
:101FD0000000002018ED00E000E400E02DE9F041F1
:101FE000044604F12805271D0648006840B128462C
:101FF00004490968884706460EB9BDE8F08100BF6C
:1020000000BFFEE750000020F0B504460D4616461E
:10201000301D20F0070044380146002203E00D4F38
:1020200041F82270521C112AF9D34D624FF0000C76
:10203000C1F828C0C1F82CC0C1F830C0C1F834C004
:102040008B63CC634FF0807CC1F840C000270F60E9
:10205000F0BD0000EFBEADDE10B5FEF7D1F80446CE
:1020600004480078401C034908702046FEF7CCF86D
:1020700010BD00005800002010B5FEF7C1F804465E
:1020800004480078401E034908702046FEF7BCF85B
:1020900010BD00005800002070B504462068A0F173
:1020A0001405284600F09EFC002070BD2DE9F0418B
:1020B00005460C469046204600F0F0FCB8F1000FB3
:1020C00003D0B8F1010F23D105E004F11401284633
:1020D00000F049F81DE02E680FE0A6F1140794F80F
:1020E000350097F83510884206DA04F1140107F13B
:1020F000140000F038F802E03668AE42EDD100BFBF
:10210000AE4204D104F11401284600F02CF800E09E
:1021100000BF00BF0020BDE8F08110B5044604F107
:10212000140000F002F8002010BD4060006070470D
:102130004060006070474060006070470268516016
:1021400002680A6001604860704702685160026876
:102150000A600160486070470268516002680A6066
:102160000160486070474268116042684A6041609F
:102170000860704701460868884201D10120704715
:102180000020FCE701460868884201D10120704721
:102190000020FCE7D0E900215160D0E90012116075
:1021A000406000607047D0E900215160D0E9001222
:1021B0001160406000607047D0E900215160D0E9B3
:1021C0000012116040600060704700002DE9F0418E
:1021D000054615B90020BDE8F081E81C20F0030594
:1021E0004E480068854201D90020F4E70C2D00D24A
:1021F0000C254FF0FF314A4800F02EFA494800689C
:1022000049490968461A7EE0474800688419608891
:10221000002874D106F10C006168081AA8426ED338
:1022200006F10C006168091A05F11800814230D3EB
:1022300006F10C0000EB05083B48006800EB0807BE
:102240004FF4F55038800020788060687860BE6078
:10225000C4F80480012060803048796800680C3040
:10226000814205D03049786809680844C0F8088080
:102270002E48016805F10C0008442C4908602C48E0
:1022800000680968884219D228480068284908600F
:1022900014E001206080244960680968611A401ACE
:1022A00022490968084421490860214800680968F2
:1022B000884203D21D4800681D4908604FF4F5505C
:1022C000208018480068844212D107E01548006851
:1022D00040681549096808441249086011480068B7
:1022E000408828B10F480068124909688842EDD13A
:1022F0000B4800F088F904F10C006CE7FFE70A488E
:1023000000683044466805480068401BB0423FF60C
:102310007BAF034800F077F900205CE768000020FD
:10232000E0050020640000205C0000206C0000201C
:102330007000002060000020F0B50C460546E6B2B3
:10234000042A15D300F0030797B9014646EA06238D
:1023500043EA034304E008C108C108C108C1103AB8
:10236000102AF8D201E008C1121F042AFBD20D4640
:1023700001E005F8016B171EA2F10102F9D1F0BDD1
:102380002DE9F04106460F46304600F045F8054677
:10239000E868FFF71BFF044614B90020BDE8F08190
:1023A00000212046EA68FFF7C7FF2672002060720E
:1023B00008223946204600F08AF9FDF721FF8046C1
:1023C00004F10C01281DFFF7B9FE4046FDF71CFF84
:1023D0002046E3E770B5044600202072FDF710FFA9
:1023E000054604F10C00FFF7D5FE2846FDF70CFF6B
:1023F0002046FFF775FD70BD70B5044600202072C1
:10240000FDF7FEFE054604F10C00FFF7C3FE28466B
:10241000FDF7FAFE70BD0000024600210AE0074801
:1024200000EB01100078904203D1044800EB01104A
:102430007047491C0629F2DB0020F9E774000020F0
:102440002DE9F04704460D46904600262846FFF742
:10245000E3FF0746FFF712FD7E6802E0A6F10C00DD
:102460003668381D8642F9D1FFF718FD45F0800027
:10247000207208224146204600F029F9FDF7C0FEEF
:10248000814604F10C01381DFFF758FE4846FDF760
:10249000BBFEBDE8F0870146087A00F0800008B175
:1024A000012070470020FCE710B5FFF7D5FD00F0D4
:1024B0007BFBFFF7E1FD10BD2DE9F041FDF7A0FE2C
:1024C00007461848008838BB17480068FFF762FBCA
:1024D000461E164850F83600A0F11404144800684F
:1024E000844218D013490E701148056804601248E0
:1024F000007850B904F11C0105F11C00FDF787FEBE
:102500003846FDF781FEBDE8F08104F11C0105F1BC
:102510001C00FDF77CFE00BF3846FDF775FE00BFCE
:10252000F1E70000D8000020D400002000060020C1
:10253000DC000020E00000205800002070B50446B8
:10254000FDF75EFE054614F8340F20F00F0040F052
:10255000010020706278343C0A4B03EBC20004F1A6
:1025600014014268116042684A604160086000BF1F
:102570000549A06B09680843034908602846FDF730
:1025800043FE70BD00060020D400002070B5044654
:10259000FDF736FE054604F11400D0E90021516034
:1025A000D0E9001211604060006000BF94F835105F
:1025B000094A02EBC1000168814201D1012100E01A
:1025C000002129B10548A16B0068884303490860D0
:1025D0002846FDF719FE70BD00060020D40000203B
:1025E0002DE9F04104460D4616461F462A460221B3
:1025F0002046FFF725FF2046FFF78FFDA683677271
:102600000020BDE8F08170B504460025FDF7F8FD17
:10261000064604F11400FFF7ADFD28B904F11400DB
:10262000FFF73AFD01250EE0A08B4FF6FF718842BF
:1026300003DAA08B401CA08305E03046FDF7E4FDE3
:102640006FF0020070BD3046FDF7DEFD012D01D1B7
:10265000FFF732FF0020F5E773B50546FDF7D0FD23
:102660000646A88B002806DDA88B401EA8833046AE
:10267000FDF7CAFD28E0019828B93046FDF7C4FDF2
:102680006FF001007CBD00F0CBF904460020206310
:102690006A7A214605F11400FFF708FD0198002829
:1026A00009DD01AA002104F14C0000F0E7FA04F171
:1026B0004C0000F03FFB3046FDF7A6FDFFF7FCFEA7
:1026C000206B08B1206BDDE70020DBE7704770B5B9
:1026D0000346A2B118460C4600BF14F8016B00F87F
:1026E000016B3EB902E0002500F8015B551E2A1E71
:1026F000F9D102E0551E2A1EEFD100BF00BF1846D7
:1027000070BD00002DE9F04107468846F81C20F016
:10271000030528F00306182E08D9A6F11800A842D0
:1027200004D3701B18381C49086001E0BDE8F08133
:102730001A48056004684FF4F55020801648006878
:102740000C3060600020A0606080144960680968F7
:102750000844134908604FF4F550096808800120C7
:102760000F49096848800C4800680C300C4909681A
:102770004860094800680C300949096888600023EE
:10278000012208A10948FFF72BFF04480068084907
:10279000086000BFCAE70000680000205C0000205D
:1027A000600000206865617000000000E005002006
:1027B0006400002010B500200B490880002405E0CB
:1027C0000A4901EBC400FFF7B3FC641C202CF7DBC3
:1027D0001F20074908700020064908600649086064
:1027E0000648FFF7A5FC10BDD80000200006002019
:1027F000E0000020DC000020D4000020E4000020E5
:1028000070B508480068FFF7C5F9451E064850F83E
:102810003500A0F114040548046004F11C00FDF724
:102820003CFD70BDD400002000060020DC0000202C
:1028300010B5002405E0044901EBC400FFF77BFC60
:10284000641C002CF7D010BDEC00002070472DE96F
:10285000FF5F06460F4690461D46DDE90EAB31464A
:102860000120FFF78DFD8146B9F1000F03D1002053
:1028700004B0BDE8F09F2846FFF7A8FC044624B941
:102880004846FFF7A7FD0020F2E743463A463146A7
:1028900048468DE8300CFFF7B3F94846E8E70000FA
:1028A00070B513480468FDF7ABFC05462046FFF7FA
:1028B00018FA2046FFF76AFE042084F8340004F179
:1028C0004C0000F00CFA2046FFF7E5FD012803D18B
:1028D0002046FFF791FD04E004F114010548FFF7DD
:1028E00034FCFFF7E9FD2846FDF78EFC70BD0000C3
:1028F000DC000020E400002001E000F001F8FCE72B
:1029000070B528E0FDF77CFC054600BF1348016860
:10291000814201D0012100E0002119B92846FDF7CC
:1029200073FC19E00D480068A0F1140404F11400D0
:10293000D0E900215160D0E90012116040600060D0
:1029400000BFA06AFFF7CCFA2046FFF743FD2846F8
:10295000FDF75AFC00BFD5E700BF70BDE4000020C2
:102960001FB520201F21C200074BCDE90032CDE961
:1029700002100023054A06A1074800F00FF8064898
:1029800000F076F81FBD0000E0040020F9280008E0
:102990007469646C65000000600400202DE9FF5F2D
:1029A00005460C4616461F46DDE910ABDDE90E89EB
:1029B000224601212846FFF743FD3B463246214689
:1029C00028468DE8000FFFF71BF904B0BDE8F09F23
:1029D00070B50446204600F0C5F80546284600F0CC
:1029E00025F870BD70B5044694F8340000F00F006F
:1029F000022802D04FF0FF3070BDFDF701FC054604
:102A000004F11400FFF7CFFB04F14C0000F008FACA
:102A10002846FDF7F9FB2046FFF790FD0020EBE785
:102A20000148006870470000DC00002031B5FDF768
:102A3000E7FB05460D480468204600F02FF86A467B
:102A4000002104F14C0000F019F904F14C0000F0F1
:102A500071F92846FDF7D8FBFFF72EFD206B801C8F
:102A600008B900202063002038BD0000DC000020F1
:102A700010B504463434A078607061780120884035
:102A80006060022004F834092046FFF7ABFFFFF72F
:102A9000C7FF08B1FFF710FD002010BD70B5044658
:102AA00094F8340000F00F00012802D04FF0FF30FE
:102AB00070BDFDF7A5FB05462046FFF767FD94F8BE
:102AC000340020F00F0040F0020084F8340004F1DC
:102AD0004C0000F0A5F92846FDF796FB0020E7E73B
:102AE00070B5044625466FF00100286305F1140017
:102AF000FFF759FB2846FFF721FDFFF7DDFC70BD0E
:102B000070B5FDF77DFB05461448046894F8340061
:102B100000F00F0001281CD1D4E90510814218D023
:102B200004F11400FFF73FFB94F835200C4B03EB46
:102B3000C20004F114014268116042684A604160B9
:102B4000086000BF2846FDF75FFBFFF7B5FC0020DB
:102B500070BD2846FDF758FB0020F9E7DC00002097
:102B6000000600200146002902DA4FF0FF3014E091
:102B70004FF47A7291FBF2F24FF47A7302FB03F096
:102B80001A4691FBF2F302FB13124FF47A735A4385
:102B900002F2E73292FBF3F21044704701480068FA
:102BA000704700005400002010B50A480068401C1F
:102BB00008490860FFF734FF0446A06C401EA0647B
:102BC000A06C18B9606CA064FFF79AFF00F004F8DD
:102BD00010BD0000540000207CB56846FFF7ABFA3A
:102BE000FFF7DCFF0546FDF70BFB06463AE02248FF
:102BF0000068A0F11404A06A281A6FF0004188420E
:102C00002ED22046FFF75FF8607A00F0020018B974
:102C1000607A20F00100607204F114016846FFF749
:102C20009BFAD4E907108847FFF7B8FF05466846C6
:102C3000FFF7A8FA00B115E004F11400FFF7BCFAA1
:102C4000607A00F0020060B1607A00F0010040B1EB
:102C5000607A20F001006072204600F06BF800E01E
:102C600005E000BF0448FFF78DFA0028BFD000BF81
:102C70003046FDF7C9FA7CBDEC0000202DE9F0419B
:102C800004460E461546FDF7BBFA0746052E1ED232
:102C9000DFE806F00603090E1300606A286017E0FB
:102CA0002868606214E0607A20F0020060720FE031
:102CB000607A40F0020060720AE0607A00F0010081
:102CC00010B10120286001E00020286000E000BF72
:102CD00000BF3846FDF798FA0020BDE8F08170B5D6
:102CE0000446FDF78DFA05462046FEF7ECFF607AB4
:102CF00020F0010060722846FDF786FA2046FFF7B3
:102D00007BFB002070BD2DE9F84307460C461546B5
:102D10001E46DDE9088922460A213846FFF790FB66
:102D20004346324629463846CDF80090FEF7AAFFC2
:102D3000BDE8F8832DE9F8430546FDF761FA8046C2
:102D40002846FEF7C0FF687A20F001006872FFF79E
:102D500025FF696A0844A8622F4F009700242AE0E3
:102D600019E05DF824201168142202EBC402881ACD
:102D7000826AAB6AD21A00D108E0826AAB6AD21AC0
:102D80006FF000439A4200D20CE000BF5DF82400CF
:102D900000684DF824005DF8240007EBC401496881
:102DA0008842DED100BF2CB15DF824000830611CE0
:102DB0004DF82100641C002CD2D018480068401C3B
:102DC000164908600846066805F114010098FFF7E7
:102DD000C3F9022412E006F0030060B9C4F1010354
:102DE00005F1140202EBC301C4F101025DF82200F7
:102DF000FFF7B2F900E003E0B608641C012CEAD941
:102E000000BF687A40F0010068724046FDF7FCF9A7
:102E10000020BDE8F8830000EC000020F400002052
:102E200070B50446607A00F0010010B94FF0FF3031
:102E300070BDFDF7E5F905462046FEF744FF607AD0
:102E400020F0010060722846FDF7DEF90020EFE770
:102E50000020704700207047002070470020704716
:102E600010B5FDF7CDF9FFF77FF8FFF72FFCFFF75F
:102E7000DFFCFFF79FFCFEF7CDFFFFF7E7FCFFF756
:102E80006FFDFFF7BDFC002010BD000070B50546CA
:102E90000C4600260DB1022C01D8002070BDA11EE9
:102EA000094802882846FEF737FF0646F1B2A01E01
:102EB000285C814206D1601E285CB0EB162F01D140
:102EC0000120EBE70020E9E72600002070B5054669
:102ED0000C4600260DB1022C01D8002070BD611EE9
:102EE000FF222846FEF732FF0646601E285CB042ED
:102EF00001D10120F2E70020F0E7FF005EBCE261B3
:102F00003FDD83C29C7E20A3FD1F419DC3217FFC2A
:102F1000A2401E5F01E3BD3E6082DC237D9FC14273
:102F20001CFEA0E1BF5D0380DE3C62BEE0025CDF10
:102F300081633D7C22C09E1D43A1FF4618FAA42751
:102F4000799BC584DA3866E5BB5907DB856739BAF2
:102F5000E406581947A5FB7826C49A653BD987042F
:102F60005AB8E6A7F91B45C6987A24F8A6441A99D8
:102F7000C7257B3A6486D85B05E7B98CD2306EED05
:102F8000B3510F4E10F2AC2F7193CD114FADF370C2
:102F90002ECC92D38D6F31B2EC0E50AFF1134DCEDB
:102FA00090722C6D33D18F0C52B0EE326C8ED053A8
:102FB0000DEFB1F0AE4C1291CF2D73CA947628ABC1
:102FC000F517490856B4EA6937D58B5709EBB5367A
:102FD000688AD495CB2977F4AA4816E9B7550B88A7
:102FE000D6346A2B7597C94A14F6A8742AC8961560
:102FF0004BA9F7B6E80A54D7896B35000000891150
:1030000012239B322446AD573665BF74488CC19D50
:103010005AAFD3BE6CCAE5DB7EE9F7F88110080130
:1030200093331A22A5562C47B7753E64C99C408D30
:10303000DBBF52AEEDDA64CBFFF976E802218B30CC
:10304000100299132667AF763444BD554AADC3BC10
:10305000588ED19F6EEBE7FA7CC8F5D983310A20F0
:1030600091121803A7772E66B5543C45CBBD42ACF0
:10307000D99E508FEFFB66EAFDD874C904428D5388
:1030800016619F702004A9153227BB364CCEC5DFD0
:103090005EEDD7FC6888E1997AABF3BA85520C43B0
:1030A00097711E60A1142805B3373A26CDDE44CFB0
:1030B000DFFD56ECE9986089FBBB72AA06638F724C
:1030C00014409D512225AB343006B9174EEFC7FE90
:1030D0005CCCD5DD6AA9E3B8788AF19B87730E6270
:1030E00095501C41A3352A24B1163807CFFF46EE70
:1030F000DDDC54CDEBB962A8F99A708B0884819518
:103100001AA793B62CC2A5D33EE1B7F04008C9195F
:10311000522BDB3A644EED5F766DFF7C899400851F
:103120009BB712A6ADD224C3BFF136E0C11848093F
:10313000D33B5A2AE55E6C4FF77D7E6C0AA583B4BB
:10314000188691972EE3A7F23CC0B5D14229CB381F
:10315000500AD91B666FEF7E744CFD5D8BB502A4DF
:1031600099961087AFF326E2BDD034C1C3394A28FF
:10317000D11A580BE77F6E6EF55C7C4D0CC685D777
:103180001EE597F42880A1913AA3B3B2444ACD5BDF
:103190005669DF78600CE91D722FFB3E8DD604C79F
:1031A0009FF516E4A9902081BBB332A2C55A4C4BBF
:1031B000D7795E68E11C680DF33F7A2E0EE787F63B
:1031C0001CC495D52AA1A3B03882B193466BCF7A9F
:1031D0005448DD59622DEB3C700EF91F8FF706E65F
:1031E0009DD414C5ABB122A0B9923083C77B4E6A7F
:1031F000D5585C49E33D6A2CF11E780F00000100B0
:1032000002000100030001000200010004000100AF
:10321000020001000300010002000100050001009E
:10322000020001000300010002000100040001008F
:10323000020001000300010002000100060001007D
:10324000020001000300010002000100040001006F
:10325000020001000300010002000100050001005E
:10326000020001000300010002000100040001004F
:10327000020001000300010002000100070001003C
:10328000020001000300010002000100040001002F
:10329000020001000300010002000100050001001E
:1032A000020001000300010002000100040001000F
:1032B00002000100030001000200010006000100FD
:1032C00002000100030001000200010004000100EF
:1032D00002000100030001000200010005000100DE
:1032E00002000100030001000200010004000100CF
:1032F00002000100030001000200010030313233FE
:10330000343536373839616263646566003031328E
:10331000333435363738394142434445460000009E
:103320005D2E0008552E0008512E0008592E000869
:103330005033000800000020F8000000E01B0008E7
:1033400048340008F8000020080A0100F01B0008BB
:103350000095BA0A0000000000000000010203040A
:10336000060708090000000001020304010203042B
:10337000060708090000FFFF000000000000000031
:10338000000000000000000000000000000000003D
:10339000000000000000000000000000000000002D
:1033A000000000000000000000000000000000001D
:1033B000000000000000000000000000000000000D
:1033C00000000000010000007800002078000020CC
:1033D000800000000200000088000020880000201B
:1033E000200000000300000098000020980000204A
:1033F0002400000004000000A8000020A800002015
:103400002000000005000000B8000020B8000020E7
:10341000300000000A000000C8000020C8000020A2
:103420002C00000000000000000000000000000070
:10343000000000000000000000000000000000008C
:08344000000000000000000084
:04000005080001C529
:00000001FF
